{
  "contractName": "Auth",
  "abi": [
    {
      "constant": true,
      "inputs": [
        {
          "internalType": "address",
          "name": "",
          "type": "address"
        }
      ],
      "name": "user",
      "outputs": [
        {
          "internalType": "address",
          "name": "addr",
          "type": "address"
        },
        {
          "internalType": "string",
          "name": "f_name",
          "type": "string"
        },
        {
          "internalType": "string",
          "name": "l_name",
          "type": "string"
        },
        {
          "internalType": "string",
          "name": "password",
          "type": "string"
        },
        {
          "internalType": "string",
          "name": "CNIC",
          "type": "string"
        },
        {
          "internalType": "bool",
          "name": "isUserLoggedIn",
          "type": "bool"
        }
      ],
      "payable": false,
      "stateMutability": "view",
      "type": "function"
    },
    {
      "constant": false,
      "inputs": [
        {
          "internalType": "address",
          "name": "_address",
          "type": "address"
        },
        {
          "internalType": "string",
          "name": "f_name",
          "type": "string"
        },
        {
          "internalType": "string",
          "name": "l_name",
          "type": "string"
        },
        {
          "internalType": "string",
          "name": "password",
          "type": "string"
        },
        {
          "internalType": "string",
          "name": "_cnic",
          "type": "string"
        }
      ],
      "name": "register",
      "outputs": [
        {
          "internalType": "bool",
          "name": "",
          "type": "bool"
        }
      ],
      "payable": false,
      "stateMutability": "nonpayable",
      "type": "function"
    },
    {
      "constant": false,
      "inputs": [
        {
          "internalType": "address",
          "name": "_address",
          "type": "address"
        },
        {
          "internalType": "string",
          "name": "_password",
          "type": "string"
        }
      ],
      "name": "login",
      "outputs": [
        {
          "internalType": "bool",
          "name": "",
          "type": "bool"
        }
      ],
      "payable": false,
      "stateMutability": "nonpayable",
      "type": "function"
    },
    {
      "constant": true,
      "inputs": [
        {
          "internalType": "address",
          "name": "_address",
          "type": "address"
        }
      ],
      "name": "checkIsUserLogged",
      "outputs": [
        {
          "internalType": "bool",
          "name": "",
          "type": "bool"
        }
      ],
      "payable": false,
      "stateMutability": "view",
      "type": "function"
    },
    {
      "constant": false,
      "inputs": [
        {
          "internalType": "address",
          "name": "_address",
          "type": "address"
        }
      ],
      "name": "logout",
      "outputs": [],
      "payable": false,
      "stateMutability": "nonpayable",
      "type": "function"
    }
  ],
  "bytecode": "0x608060405234801561001057600080fd5b50610e24806100206000396000f3fe608060405234801561001057600080fd5b50600436106100575760003560e01c8063297f7b391461005c5780632f19d50b146100b85780633a8820e5146101ab57806381e7e20e14610463578063cc51f9b9146106a2575b600080fd5b61009e6004803603602081101561007257600080fd5b81019080803573ffffffffffffffffffffffffffffffffffffffff1690602001909291905050506106e6565b604051808215151515815260200191505060405180910390f35b610191600480360360408110156100ce57600080fd5b81019080803573ffffffffffffffffffffffffffffffffffffffff1690602001909291908035906020019064010000000081111561010b57600080fd5b82018360208201111561011d57600080fd5b8035906020019184600183028401116401000000008311171561013f57600080fd5b91908080601f016020809104026020016040519081016040528093929190818152602001838380828437600081840152601f19601f82011690508083019250505050505050919291929050505061073e565b604051808215151515815260200191505060405180910390f35b610449600480360360a08110156101c157600080fd5b81019080803573ffffffffffffffffffffffffffffffffffffffff169060200190929190803590602001906401000000008111156101fe57600080fd5b82018360208201111561021057600080fd5b8035906020019184600183028401116401000000008311171561023257600080fd5b91908080601f016020809104026020016040519081016040528093929190818152602001838380828437600081840152601f19601f8201169050808301925050505050505091929192908035906020019064010000000081111561029557600080fd5b8201836020820111156102a757600080fd5b803590602001918460018302840111640100000000831117156102c957600080fd5b91908080601f016020809104026020016040519081016040528093929190818152602001838380828437600081840152601f19601f8201169050808301925050505050505091929192908035906020019064010000000081111561032c57600080fd5b82018360208201111561033e57600080fd5b8035906020019184600183028401116401000000008311171561036057600080fd5b91908080601f016020809104026020016040519081016040528093929190818152602001838380828437600081840152601f19601f820116905080830192505050505050509192919290803590602001906401000000008111156103c357600080fd5b8201836020820111156103d557600080fd5b803590602001918460018302840111640100000000831117156103f757600080fd5b91908080601f016020809104026020016040519081016040528093929190818152602001838380828437600081840152601f19601f820116905080830192505050505050509192919290505050610749565b604051808215151515815260200191505060405180910390f35b6104a56004803603602081101561047957600080fd5b81019080803573ffffffffffffffffffffffffffffffffffffffff169060200190929190505050610a24565b604051808773ffffffffffffffffffffffffffffffffffffffff1673ffffffffffffffffffffffffffffffffffffffff168152602001806020018060200180602001806020018615151515815260200185810385528a818151815260200191508051906020019080838360005b8381101561052d578082015181840152602081019050610512565b50505050905090810190601f16801561055a5780820380516001836020036101000a031916815260200191505b50858103845289818151815260200191508051906020019080838360005b83811015610593578082015181840152602081019050610578565b50505050905090810190601f1680156105c05780820380516001836020036101000a031916815260200191505b50858103835288818151815260200191508051906020019080838360005b838110156105f95780820151818401526020810190506105de565b50505050905090810190601f1680156106265780820380516001836020036101000a031916815260200191505b50858103825287818151815260200191508051906020019080838360005b8381101561065f578082015181840152602081019050610644565b50505050905090810190601f16801561068c5780820380516001836020036101000a031916815260200191505b509a505050505050505050505060405180910390f35b6106e4600480360360208110156106b857600080fd5b81019080803573ffffffffffffffffffffffffffffffffffffffff169060200190929190505050610ced565b005b60008060008373ffffffffffffffffffffffffffffffffffffffff1673ffffffffffffffffffffffffffffffffffffffff16815260200190815260200160002060050160009054906101000a900460ff169050919050565b600080905092915050565b60003373ffffffffffffffffffffffffffffffffffffffff166000808873ffffffffffffffffffffffffffffffffffffffff1673ffffffffffffffffffffffffffffffffffffffff16815260200190815260200160002060000160009054906101000a900473ffffffffffffffffffffffffffffffffffffffff1673ffffffffffffffffffffffffffffffffffffffff1614156107e557600080fd5b856000808873ffffffffffffffffffffffffffffffffffffffff1673ffffffffffffffffffffffffffffffffffffffff16815260200190815260200160002060000160006101000a81548173ffffffffffffffffffffffffffffffffffffffff021916908373ffffffffffffffffffffffffffffffffffffffff160217905550846000808873ffffffffffffffffffffffffffffffffffffffff1673ffffffffffffffffffffffffffffffffffffffff16815260200190815260200160002060010190805190602001906108ba929190610d4a565b50836000808873ffffffffffffffffffffffffffffffffffffffff1673ffffffffffffffffffffffffffffffffffffffff1681526020019081526020016000206002019080519060200190610910929190610d4a565b50826000808873ffffffffffffffffffffffffffffffffffffffff1673ffffffffffffffffffffffffffffffffffffffff1681526020019081526020016000206003019080519060200190610966929190610d4a565b50816000808873ffffffffffffffffffffffffffffffffffffffff1673ffffffffffffffffffffffffffffffffffffffff16815260200190815260200160002060040190805190602001906109bc929190610d4a565b5060008060008873ffffffffffffffffffffffffffffffffffffffff1673ffffffffffffffffffffffffffffffffffffffff16815260200190815260200160002060050160006101000a81548160ff0219169083151502179055506001905095945050505050565b60006020528060005260406000206000915090508060000160009054906101000a900473ffffffffffffffffffffffffffffffffffffffff1690806001018054600181600116156101000203166002900480601f016020809104026020016040519081016040528092919081815260200182805460018160011615610100020316600290048015610af65780601f10610acb57610100808354040283529160200191610af6565b820191906000526020600020905b815481529060010190602001808311610ad957829003601f168201915b505050505090806002018054600181600116156101000203166002900480601f016020809104026020016040519081016040528092919081815260200182805460018160011615610100020316600290048015610b945780601f10610b6957610100808354040283529160200191610b94565b820191906000526020600020905b815481529060010190602001808311610b7757829003601f168201915b505050505090806003018054600181600116156101000203166002900480601f016020809104026020016040519081016040528092919081815260200182805460018160011615610100020316600290048015610c325780601f10610c0757610100808354040283529160200191610c32565b820191906000526020600020905b815481529060010190602001808311610c1557829003601f168201915b505050505090806004018054600181600116156101000203166002900480601f016020809104026020016040519081016040528092919081815260200182805460018160011615610100020316600290048015610cd05780601f10610ca557610100808354040283529160200191610cd0565b820191906000526020600020905b815481529060010190602001808311610cb357829003601f168201915b5050505050908060050160009054906101000a900460ff16905086565b60008060008373ffffffffffffffffffffffffffffffffffffffff1673ffffffffffffffffffffffffffffffffffffffff16815260200190815260200160002060050160006101000a81548160ff02191690831515021790555050565b828054600181600116156101000203166002900490600052602060002090601f016020900481019282601f10610d8b57805160ff1916838001178555610db9565b82800160010185558215610db9579182015b82811115610db8578251825591602001919060010190610d9d565b5b509050610dc69190610dca565b5090565b610dec91905b80821115610de8576000816000905550600101610dd0565b5090565b9056fea265627a7a72315820b6374856de7af846620a48748a82cac057280884df829d7dd3d931848e57f0bb64736f6c63430005100032",
  "source": "// SPDX-License-Identifier: MIT\r\npragma solidity >=0.4.22 <0.9.0;\r\n\r\ncontract Auth {\r\n    struct UserDetail {\r\n        address addr;\r\n        string f_name;\r\n        string l_name;\r\n        string password;\r\n        string CNIC;\r\n        bool isUserLoggedIn;\r\n    }\r\n\r\n    mapping(address => UserDetail) public user;\r\n\r\n    // user registration function\r\n    function register(\r\n        address _address,\r\n        string memory f_name,\r\n        string memory l_name,\r\n        string memory password,\r\n        string memory _cnic\r\n    ) public returns (bool) {\r\n        require(user[_address].addr != msg.sender);\r\n        user[_address].addr = _address;\r\n        user[_address].f_name = f_name;\r\n        user[_address].l_name = l_name;\r\n        user[_address].password = password;\r\n        user[_address].CNIC = _cnic;\r\n        user[_address].isUserLoggedIn = false;\r\n        return true;\r\n    }\r\n\r\n    // user login function\r\n    function login(address _address, string memory _password)\r\n        public\r\n        returns (bool)\r\n    {\r\n        return false;\r\n        // if (\r\n        //     keccak256(abi.encodePacked(user[_address].password)) ==\r\n        //     keccak256(abi.encodePacked(_password))\r\n        // ) {\r\n        //     user[_address].isUserLoggedIn = true;\r\n        //     return user[_address].isUserLoggedIn;\r\n        // } else {\r\n        //     return false;\r\n        // }\r\n    }\r\n\r\n    // check the user logged In or not\r\n    function checkIsUserLogged(address _address) public view returns (bool) {\r\n        return (user[_address].isUserLoggedIn);\r\n    }\r\n\r\n    // logout the user\r\n    function logout(address _address) public {\r\n        user[_address].isUserLoggedIn = false;\r\n    }\r\n}\r\n",
  "sourcePath": "F:\\blockchain-project\\contracts\\Auth.sol",
  "compiler": {
    "name": "solc",
    "version": "0.5.16+commit.9c3226ce.Emscripten.clang"
  },
  "schemaVersion": "3.4.4",
  "updatedAt": "2022-01-12T09:48:58.152Z",
  "devdoc": {
    "methods": {}
  },
  "userdoc": {
    "methods": {}
  }
}