{
  "contractName": "Land",
  "abi": [
    {
      "inputs": [],
      "payable": false,
      "stateMutability": "nonpayable",
      "type": "constructor"
    },
    {
      "constant": true,
      "inputs": [
        {
          "internalType": "uint256",
          "name": "",
          "type": "uint256"
        }
      ],
      "name": "all",
      "outputs": [
        {
          "internalType": "address",
          "name": "",
          "type": "address"
        }
      ],
      "payable": false,
      "stateMutability": "view",
      "type": "function"
    },
    {
      "constant": true,
      "inputs": [],
      "name": "landCount",
      "outputs": [
        {
          "internalType": "uint256",
          "name": "",
          "type": "uint256"
        }
      ],
      "payable": false,
      "stateMutability": "view",
      "type": "function"
    },
    {
      "constant": true,
      "inputs": [
        {
          "internalType": "address",
          "name": "",
          "type": "address"
        }
      ],
      "name": "user",
      "outputs": [
        {
          "internalType": "string",
          "name": "f_name",
          "type": "string"
        },
        {
          "internalType": "string",
          "name": "l_name",
          "type": "string"
        },
        {
          "internalType": "string",
          "name": "id",
          "type": "string"
        },
        {
          "internalType": "string",
          "name": "password",
          "type": "string"
        },
        {
          "internalType": "address",
          "name": "addr",
          "type": "address"
        },
        {
          "internalType": "bool",
          "name": "isAdmin",
          "type": "bool"
        },
        {
          "internalType": "bool",
          "name": "isLoggedin",
          "type": "bool"
        }
      ],
      "payable": false,
      "stateMutability": "view",
      "type": "function"
    },
    {
      "constant": true,
      "inputs": [
        {
          "internalType": "address",
          "name": "",
          "type": "address"
        },
        {
          "internalType": "uint256",
          "name": "",
          "type": "uint256"
        }
      ],
      "name": "userLands",
      "outputs": [
        {
          "internalType": "uint256",
          "name": "id",
          "type": "uint256"
        },
        {
          "internalType": "address",
          "name": "owner",
          "type": "address"
        },
        {
          "internalType": "uint256",
          "name": "timestamp",
          "type": "uint256"
        },
        {
          "internalType": "bool",
          "name": "forSell",
          "type": "bool"
        },
        {
          "internalType": "uint256",
          "name": "price",
          "type": "uint256"
        }
      ],
      "payable": false,
      "stateMutability": "view",
      "type": "function"
    },
    {
      "constant": false,
      "inputs": [],
      "name": "deposit",
      "outputs": [
        {
          "internalType": "uint256",
          "name": "",
          "type": "uint256"
        }
      ],
      "payable": true,
      "stateMutability": "payable",
      "type": "function"
    },
    {
      "constant": false,
      "inputs": [
        {
          "internalType": "string[]",
          "name": "_coordinates",
          "type": "string[]"
        },
        {
          "internalType": "address",
          "name": "owner",
          "type": "address"
        }
      ],
      "name": "createLand",
      "outputs": [
        {
          "internalType": "bool",
          "name": "",
          "type": "bool"
        }
      ],
      "payable": false,
      "stateMutability": "nonpayable",
      "type": "function"
    },
    {
      "constant": false,
      "inputs": [
        {
          "internalType": "string",
          "name": "id",
          "type": "string"
        },
        {
          "internalType": "string",
          "name": "password",
          "type": "string"
        }
      ],
      "name": "login",
      "outputs": [
        {
          "internalType": "bool",
          "name": "",
          "type": "bool"
        }
      ],
      "payable": false,
      "stateMutability": "nonpayable",
      "type": "function"
    },
    {
      "constant": false,
      "inputs": [
        {
          "internalType": "string",
          "name": "f_name",
          "type": "string"
        },
        {
          "internalType": "string",
          "name": "l_name",
          "type": "string"
        },
        {
          "internalType": "string",
          "name": "id",
          "type": "string"
        },
        {
          "internalType": "string",
          "name": "password",
          "type": "string"
        },
        {
          "internalType": "bool",
          "name": "isAdmin",
          "type": "bool"
        }
      ],
      "name": "register",
      "outputs": [
        {
          "internalType": "bool",
          "name": "",
          "type": "bool"
        }
      ],
      "payable": false,
      "stateMutability": "nonpayable",
      "type": "function"
    },
    {
      "constant": true,
      "inputs": [],
      "name": "getLands",
      "outputs": [
        {
          "components": [
            {
              "internalType": "uint256",
              "name": "id",
              "type": "uint256"
            },
            {
              "internalType": "string[]",
              "name": "coordinates",
              "type": "string[]"
            },
            {
              "internalType": "address",
              "name": "owner",
              "type": "address"
            },
            {
              "internalType": "uint256",
              "name": "timestamp",
              "type": "uint256"
            },
            {
              "internalType": "bool",
              "name": "forSell",
              "type": "bool"
            },
            {
              "internalType": "uint256",
              "name": "price",
              "type": "uint256"
            }
          ],
          "internalType": "struct Land.LandStruct[]",
          "name": "",
          "type": "tuple[]"
        }
      ],
      "payable": false,
      "stateMutability": "view",
      "type": "function"
    },
    {
      "constant": true,
      "inputs": [],
      "name": "sendMe",
      "outputs": [
        {
          "internalType": "address",
          "name": "",
          "type": "address"
        }
      ],
      "payable": false,
      "stateMutability": "view",
      "type": "function"
    },
    {
      "constant": true,
      "inputs": [],
      "name": "getAllAddresses",
      "outputs": [
        {
          "internalType": "address[]",
          "name": "",
          "type": "address[]"
        }
      ],
      "payable": false,
      "stateMutability": "view",
      "type": "function"
    },
    {
      "constant": true,
      "inputs": [],
      "name": "getUserLands",
      "outputs": [
        {
          "components": [
            {
              "internalType": "uint256",
              "name": "id",
              "type": "uint256"
            },
            {
              "internalType": "string[]",
              "name": "coordinates",
              "type": "string[]"
            },
            {
              "internalType": "address",
              "name": "owner",
              "type": "address"
            },
            {
              "internalType": "uint256",
              "name": "timestamp",
              "type": "uint256"
            },
            {
              "internalType": "bool",
              "name": "forSell",
              "type": "bool"
            },
            {
              "internalType": "uint256",
              "name": "price",
              "type": "uint256"
            }
          ],
          "internalType": "struct Land.LandStruct[]",
          "name": "",
          "type": "tuple[]"
        }
      ],
      "payable": false,
      "stateMutability": "view",
      "type": "function"
    },
    {
      "constant": true,
      "inputs": [],
      "name": "getTransactions",
      "outputs": [
        {
          "components": [
            {
              "internalType": "address",
              "name": "from",
              "type": "address"
            },
            {
              "internalType": "address",
              "name": "to",
              "type": "address"
            },
            {
              "internalType": "uint256",
              "name": "landId",
              "type": "uint256"
            }
          ],
          "internalType": "struct Land.Transaction[]",
          "name": "",
          "type": "tuple[]"
        }
      ],
      "payable": false,
      "stateMutability": "view",
      "type": "function"
    },
    {
      "constant": true,
      "inputs": [],
      "name": "getAllTransactions",
      "outputs": [
        {
          "components": [
            {
              "internalType": "address",
              "name": "from",
              "type": "address"
            },
            {
              "internalType": "address",
              "name": "to",
              "type": "address"
            },
            {
              "internalType": "uint256",
              "name": "landId",
              "type": "uint256"
            }
          ],
          "internalType": "struct Land.Transaction[]",
          "name": "",
          "type": "tuple[]"
        }
      ],
      "payable": false,
      "stateMutability": "view",
      "type": "function"
    },
    {
      "constant": true,
      "inputs": [
        {
          "internalType": "uint256",
          "name": "id",
          "type": "uint256"
        }
      ],
      "name": "getLand",
      "outputs": [
        {
          "components": [
            {
              "internalType": "uint256",
              "name": "id",
              "type": "uint256"
            },
            {
              "internalType": "string[]",
              "name": "coordinates",
              "type": "string[]"
            },
            {
              "internalType": "address",
              "name": "owner",
              "type": "address"
            },
            {
              "internalType": "uint256",
              "name": "timestamp",
              "type": "uint256"
            },
            {
              "internalType": "bool",
              "name": "forSell",
              "type": "bool"
            },
            {
              "internalType": "uint256",
              "name": "price",
              "type": "uint256"
            }
          ],
          "internalType": "struct Land.LandStruct",
          "name": "",
          "type": "tuple"
        }
      ],
      "payable": false,
      "stateMutability": "view",
      "type": "function"
    },
    {
      "constant": true,
      "inputs": [
        {
          "internalType": "address",
          "name": "adr",
          "type": "address"
        }
      ],
      "name": "getMe",
      "outputs": [
        {
          "components": [
            {
              "internalType": "string",
              "name": "f_name",
              "type": "string"
            },
            {
              "internalType": "string",
              "name": "l_name",
              "type": "string"
            },
            {
              "internalType": "string",
              "name": "id",
              "type": "string"
            },
            {
              "internalType": "string",
              "name": "password",
              "type": "string"
            },
            {
              "internalType": "address",
              "name": "addr",
              "type": "address"
            },
            {
              "internalType": "bool",
              "name": "isAdmin",
              "type": "bool"
            },
            {
              "internalType": "bool",
              "name": "isLoggedin",
              "type": "bool"
            }
          ],
          "internalType": "struct Land.User",
          "name": "",
          "type": "tuple"
        }
      ],
      "payable": false,
      "stateMutability": "view",
      "type": "function"
    },
    {
      "constant": true,
      "inputs": [],
      "name": "testMe",
      "outputs": [
        {
          "internalType": "address",
          "name": "",
          "type": "address"
        }
      ],
      "payable": false,
      "stateMutability": "view",
      "type": "function"
    },
    {
      "constant": false,
      "inputs": [
        {
          "internalType": "uint256",
          "name": "price",
          "type": "uint256"
        },
        {
          "internalType": "uint256",
          "name": "i",
          "type": "uint256"
        }
      ],
      "name": "updateLandForsell",
      "outputs": [
        {
          "internalType": "bool",
          "name": "",
          "type": "bool"
        }
      ],
      "payable": false,
      "stateMutability": "nonpayable",
      "type": "function"
    },
    {
      "constant": false,
      "inputs": [
        {
          "internalType": "uint256",
          "name": "i",
          "type": "uint256"
        }
      ],
      "name": "updateLandStatus",
      "outputs": [
        {
          "internalType": "bool",
          "name": "",
          "type": "bool"
        }
      ],
      "payable": false,
      "stateMutability": "nonpayable",
      "type": "function"
    },
    {
      "constant": false,
      "inputs": [
        {
          "internalType": "uint256",
          "name": "id",
          "type": "uint256"
        },
        {
          "internalType": "address",
          "name": "owner",
          "type": "address"
        }
      ],
      "name": "sellLand",
      "outputs": [],
      "payable": false,
      "stateMutability": "nonpayable",
      "type": "function"
    },
    {
      "constant": false,
      "inputs": [
        {
          "internalType": "address",
          "name": "from",
          "type": "address"
        },
        {
          "internalType": "address payable",
          "name": "to",
          "type": "address"
        },
        {
          "internalType": "uint256",
          "name": "landId",
          "type": "uint256"
        }
      ],
      "name": "sellLand",
      "outputs": [
        {
          "internalType": "bool",
          "name": "",
          "type": "bool"
        }
      ],
      "payable": true,
      "stateMutability": "payable",
      "type": "function"
    }
  ],
  "bytecode": "0x6080604052600080553480156200001557600080fd5b506040518060e001604052806040518060400160405280600781526020017f4e61746e61656c0000000000000000000000000000000000000000000000000081525081526020016040518060400160405280600481526020017f616261790000000000000000000000000000000000000000000000000000000081525081526020016040518060400160405280600681526020017f313233313233000000000000000000000000000000000000000000000000000081525081526020016040518060400160405280600681526020017f313233313233000000000000000000000000000000000000000000000000000081525081526020013373ffffffffffffffffffffffffffffffffffffffff16815260200160011515815260200160001515815250600460003373ffffffffffffffffffffffffffffffffffffffff1673ffffffffffffffffffffffffffffffffffffffff16815260200190815260200160002060008201518160000190805190602001906200019692919062000284565b506020820151816001019080519060200190620001b592919062000284565b506040820151816002019080519060200190620001d492919062000284565b506060820151816003019080519060200190620001f392919062000284565b5060808201518160040160006101000a81548173ffffffffffffffffffffffffffffffffffffffff021916908373ffffffffffffffffffffffffffffffffffffffff16021790555060a08201518160040160146101000a81548160ff02191690831515021790555060c08201518160040160156101000a81548160ff02191690831515021790555090505062000333565b828054600181600116156101000203166002900490600052602060002090601f016020900481019282601f10620002c757805160ff1916838001178555620002f8565b82800160010185558215620002f8579182015b82811115620002f7578251825591602001919060010190620002da565b5b5090506200030791906200030b565b5090565b6200033091905b808211156200032c57600081600090555060010162000312565b5090565b90565b61429680620003436000396000f3fe60806040526004361061012a5760003560e01c80638037eb78116100ab578063b2ce5d4e1161006f578063b2ce5d4e14610436578063c309c34d14610466578063d0e30db0146104a3578063d7bce658146104c1578063dc219adc146104ec578063f02dd53f1461052d5761012a565b80638037eb781461033557806381e7e20e1461037257806383920e90146103b55780638c319464146103e05780639516a1041461040b5761012a565b806358467dbc116100f257806358467dbc146102165780636114730c1461025357806362aa0509146102905780636fe0c906146102cd5780637cad3e86146102f85761012a565b806327506f531461012f5780632d80d05b1461015a57806341b0b5f21461018557806344eeec28146101c257806352415840146101eb575b600080fd5b34801561013b57600080fd5b5061014461056a565b6040516101519190613de7565b60405180910390f35b34801561016657600080fd5b5061016f61067f565b60405161017c9190613d88565b60405180910390f35b34801561019157600080fd5b506101ac60048036036101a79190810190613654565b610687565b6040516101b99190613e09565b60405180910390f35b3480156101ce57600080fd5b506101e960048036036101e49190810190613754565b610a29565b005b3480156101f757600080fd5b5061020061147b565b60405161020d9190613d88565b60405180910390f35b34801561022257600080fd5b5061023d600480360361023891908101906135e8565b611483565b60405161024a9190613e09565b60405180910390f35b34801561025f57600080fd5b5061027a6004803603610275919081019061372b565b6116bb565b6040516102879190613d88565b60405180910390f35b34801561029c57600080fd5b506102b760048036036102b291908101906134e0565b6116f7565b6040516102c49190613ed1565b60405180910390f35b3480156102d957600080fd5b506102e2611a64565b6040516102ef9190613dc5565b60405180910390f35b34801561030457600080fd5b5061031f600480360361031a9190810190613790565b611c3b565b60405161032c9190613e09565b60405180910390f35b34801561034157600080fd5b5061035c6004803603610357919081019061372b565b611ca7565b6040516103699190613e09565b60405180910390f35b34801561037e57600080fd5b50610399600480360361039491908101906134e0565b611d1a565b6040516103ac9796959493929190613e24565b60405180910390f35b3480156103c157600080fd5b506103ca611ff6565b6040516103d79190613de7565b60405180910390f35b3480156103ec57600080fd5b506103f5612148565b6040516104029190613dc5565b60405180910390f35b34801561041757600080fd5b5061042061235c565b60405161042d9190613da3565b60405180910390f35b610450600480360361044b9190810190613509565b6123ea565b60405161045d9190613e09565b60405180910390f35b34801561047257600080fd5b5061048d60048036036104889190810190613594565b6127e9565b60405161049a9190613e09565b60405180910390f35b6104ab612dea565b6040516104b89190613ef3565b60405180910390f35b3480156104cd57600080fd5b506104d6612e7e565b6040516104e39190613ef3565b60405180910390f35b3480156104f857600080fd5b50610513600480360361050e9190810190613558565b612e84565b604051610524959493929190613f0e565b60405180910390f35b34801561053957600080fd5b50610554600480360361054f919081019061372b565b612f01565b6040516105619190613eaf565b60405180910390f35b60606001805480602002602001604051908101604052809291908181526020016000905b8282101561067657838290600052602060002090600302016040518060600160405290816000820160009054906101000a900473ffffffffffffffffffffffffffffffffffffffff1673ffffffffffffffffffffffffffffffffffffffff1673ffffffffffffffffffffffffffffffffffffffff1681526020016001820160009054906101000a900473ffffffffffffffffffffffffffffffffffffffff1673ffffffffffffffffffffffffffffffffffffffff1673ffffffffffffffffffffffffffffffffffffffff1681526020016002820154815250508152602001906001019061058e565b50505050905090565b600033905090565b60003373ffffffffffffffffffffffffffffffffffffffff16600460003373ffffffffffffffffffffffffffffffffffffffff1673ffffffffffffffffffffffffffffffffffffffff16815260200190815260200160002060040160009054906101000a900473ffffffffffffffffffffffffffffffffffffffff1673ffffffffffffffffffffffffffffffffffffffff16141561072457600080fd5b33600460003373ffffffffffffffffffffffffffffffffffffffff1673ffffffffffffffffffffffffffffffffffffffff16815260200190815260200160002060040160006101000a81548173ffffffffffffffffffffffffffffffffffffffff021916908373ffffffffffffffffffffffffffffffffffffffff16021790555085600460003373ffffffffffffffffffffffffffffffffffffffff1673ffffffffffffffffffffffffffffffffffffffff16815260200190815260200160002060000190805190602001906107fb9291906130b1565b5084600460003373ffffffffffffffffffffffffffffffffffffffff1673ffffffffffffffffffffffffffffffffffffffff16815260200190815260200160002060010190805190602001906108529291906130b1565b5083600460003373ffffffffffffffffffffffffffffffffffffffff1673ffffffffffffffffffffffffffffffffffffffff16815260200190815260200160002060020190805190602001906108a99291906130b1565b5082600460003373ffffffffffffffffffffffffffffffffffffffff1673ffffffffffffffffffffffffffffffffffffffff16815260200190815260200160002060030190805190602001906109009291906130b1565b506000600460003373ffffffffffffffffffffffffffffffffffffffff1673ffffffffffffffffffffffffffffffffffffffff16815260200190815260200160002060040160156101000a81548160ff02191690831515021790555081600460003373ffffffffffffffffffffffffffffffffffffffff1673ffffffffffffffffffffffffffffffffffffffff16815260200190815260200160002060040160146101000a81548160ff02191690831515021790555060033390806001815401808255809150509060018203906000526020600020016000909192909190916101000a81548173ffffffffffffffffffffffffffffffffffffffff021916908373ffffffffffffffffffffffffffffffffffffffff160217905550506001905095945050505050565b600760008273ffffffffffffffffffffffffffffffffffffffff1673ffffffffffffffffffffffffffffffffffffffff168152602001908152602001600020604051806060016040528060026001860381548110610a8357fe5b906000526020600020906006020160020160009054906101000a900473ffffffffffffffffffffffffffffffffffffffff1673ffffffffffffffffffffffffffffffffffffffff1681526020018373ffffffffffffffffffffffffffffffffffffffff168152602001848152509080600181540180825580915050906001820390600052602060002090600302016000909192909190915060008201518160000160006101000a81548173ffffffffffffffffffffffffffffffffffffffff021916908373ffffffffffffffffffffffffffffffffffffffff16021790555060208201518160010160006101000a81548173ffffffffffffffffffffffffffffffffffffffff021916908373ffffffffffffffffffffffffffffffffffffffff160217905550604082015181600201555050506007600060026001850381548110610bca57fe5b906000526020600020906006020160020160009054906101000a900473ffffffffffffffffffffffffffffffffffffffff1673ffffffffffffffffffffffffffffffffffffffff1673ffffffffffffffffffffffffffffffffffffffff168152602001908152602001600020604051806060016040528060026001860381548110610c5157fe5b906000526020600020906006020160020160009054906101000a900473ffffffffffffffffffffffffffffffffffffffff1673ffffffffffffffffffffffffffffffffffffffff1681526020018373ffffffffffffffffffffffffffffffffffffffff168152602001848152509080600181540180825580915050906001820390600052602060002090600302016000909192909190915060008201518160000160006101000a81548173ffffffffffffffffffffffffffffffffffffffff021916908373ffffffffffffffffffffffffffffffffffffffff16021790555060208201518160010160006101000a81548173ffffffffffffffffffffffffffffffffffffffff021916908373ffffffffffffffffffffffffffffffffffffffff160217905550604082015181600201555050506001604051806060016040528060026001860381548110610da157fe5b906000526020600020906006020160020160009054906101000a900473ffffffffffffffffffffffffffffffffffffffff1673ffffffffffffffffffffffffffffffffffffffff1681526020018373ffffffffffffffffffffffffffffffffffffffff168152602001848152509080600181540180825580915050906001820390600052602060002090600302016000909192909190915060008201518160000160006101000a81548173ffffffffffffffffffffffffffffffffffffffff021916908373ffffffffffffffffffffffffffffffffffffffff16021790555060208201518160010160006101000a81548173ffffffffffffffffffffffffffffffffffffffff021916908373ffffffffffffffffffffffffffffffffffffffff16021790555060408201518160020155505050600060026001840381548110610ee657fe5b906000526020600020906006020160040160006101000a81548160ff0219169083151502179055508060026001840381548110610f1f57fe5b906000526020600020906006020160020160006101000a81548173ffffffffffffffffffffffffffffffffffffffff021916908373ffffffffffffffffffffffffffffffffffffffff160217905550610f76613131565b6040518060c0016040528060018503815260200160026001860381548110610f9a57fe5b9060005260206000209060060201600101805480602002602001604051908101604052809291908181526020016000905b82821015611087578382906000526020600020018054600181600116156101000203166002900480601f0160208091040260200160405190810160405280929190818152602001828054600181600116156101000203166002900480156110735780601f1061104857610100808354040283529160200191611073565b820191906000526020600020905b81548152906001019060200180831161105657829003601f168201915b505050505081526020019060010190610fcb565b505050508152602001600260018603815481106110a057fe5b906000526020600020906006020160020160009054906101000a900473ffffffffffffffffffffffffffffffffffffffff1673ffffffffffffffffffffffffffffffffffffffff1681526020014281526020016000151581526020016002600186038154811061110c57fe5b9060005260206000209060060201600501548152509050600660008373ffffffffffffffffffffffffffffffffffffffff1673ffffffffffffffffffffffffffffffffffffffff16815260200190815260200160002081908060018154018082558091505090600182039060005260206000209060060201600090919290919091506000820151816000015560208201518160010190805190602001906111b492919061317f565b5060408201518160020160006101000a81548173ffffffffffffffffffffffffffffffffffffffff021916908373ffffffffffffffffffffffffffffffffffffffff1602179055506060820151816003015560808201518160040160006101000a81548160ff02191690831515021790555060a0820151816005015550505060008090505b600660006002600187038154811061124d57fe5b906000526020600020906006020160020160009054906101000a900473ffffffffffffffffffffffffffffffffffffffff1673ffffffffffffffffffffffffffffffffffffffff1673ffffffffffffffffffffffffffffffffffffffff16815260200190815260200160002080549050811015611475578360066000600260018803815481106112d957fe5b906000526020600020906006020160020160009054906101000a900473ffffffffffffffffffffffffffffffffffffffff1673ffffffffffffffffffffffffffffffffffffffff1673ffffffffffffffffffffffffffffffffffffffff168152602001908152602001600020828154811061135057fe5b906000526020600020906006020160000154141561146857600660006002600187038154811061137c57fe5b906000526020600020906006020160020160009054906101000a900473ffffffffffffffffffffffffffffffffffffffff1673ffffffffffffffffffffffffffffffffffffffff1673ffffffffffffffffffffffffffffffffffffffff16815260200190815260200160002081815481106113f357fe5b906000526020600020906006020160008082016000905560018201600061141a91906131df565b6002820160006101000a81549073ffffffffffffffffffffffffffffffffffffffff021916905560038201600090556004820160006101000a81549060ff0219169055600582016000905550505b8080600101915050611239565b50505050565b600033905090565b60003373ffffffffffffffffffffffffffffffffffffffff16600460003373ffffffffffffffffffffffffffffffffffffffff1673ffffffffffffffffffffffffffffffffffffffff16815260200190815260200160002060040160009054906101000a900473ffffffffffffffffffffffffffffffffffffffff1673ffffffffffffffffffffffffffffffffffffffff161461151f57600080fd5b826040516020016115309190613d5a565b60405160208183030381529060405280519060200120600460003373ffffffffffffffffffffffffffffffffffffffff1673ffffffffffffffffffffffffffffffffffffffff1681526020019081526020016000206002016040516020016115989190613d71565b604051602081830303815290604052805190602001201480156116475750816040516020016115c79190613d5a565b60405160208183030381529060405280519060200120600460003373ffffffffffffffffffffffffffffffffffffffff1673ffffffffffffffffffffffffffffffffffffffff16815260200190815260200160002060030160405160200161162f9190613d71565b60405160208183030381529060405280519060200120145b156116b0576001600460003373ffffffffffffffffffffffffffffffffffffffff1673ffffffffffffffffffffffffffffffffffffffff16815260200190815260200160002060040160156101000a81548160ff021916908315150217905550600190506116b5565b600090505b92915050565b600381815481106116c857fe5b906000526020600020016000915054906101000a900473ffffffffffffffffffffffffffffffffffffffff1681565b6116ff613200565b600460008373ffffffffffffffffffffffffffffffffffffffff1673ffffffffffffffffffffffffffffffffffffffff1681526020019081526020016000206040518060e0016040529081600082018054600181600116156101000203166002900480601f0160208091040260200160405190810160405280929190818152602001828054600181600116156101000203166002900480156117e25780601f106117b7576101008083540402835291602001916117e2565b820191906000526020600020905b8154815290600101906020018083116117c557829003601f168201915b50505050508152602001600182018054600181600116156101000203166002900480601f0160208091040260200160405190810160405280929190818152602001828054600181600116156101000203166002900480156118845780601f1061185957610100808354040283529160200191611884565b820191906000526020600020905b81548152906001019060200180831161186757829003601f168201915b50505050508152602001600282018054600181600116156101000203166002900480601f0160208091040260200160405190810160405280929190818152602001828054600181600116156101000203166002900480156119265780601f106118fb57610100808354040283529160200191611926565b820191906000526020600020905b81548152906001019060200180831161190957829003601f168201915b50505050508152602001600382018054600181600116156101000203166002900480601f0160208091040260200160405190810160405280929190818152602001828054600181600116156101000203166002900480156119c85780601f1061199d576101008083540402835291602001916119c8565b820191906000526020600020905b8154815290600101906020018083116119ab57829003601f168201915b505050505081526020016004820160009054906101000a900473ffffffffffffffffffffffffffffffffffffffff1673ffffffffffffffffffffffffffffffffffffffff1673ffffffffffffffffffffffffffffffffffffffff1681526020016004820160149054906101000a900460ff161515151581526020016004820160159054906101000a900460ff1615151515815250509050919050565b60606002805480602002602001604051908101604052809291908181526020016000905b82821015611c3257838290600052602060002090600602016040518060c00160405290816000820154815260200160018201805480602002602001604051908101604052809291908181526020016000905b82821015611b96578382906000526020600020018054600181600116156101000203166002900480601f016020809104026020016040519081016040528092919081815260200182805460018160011615610100020316600290048015611b825780601f10611b5757610100808354040283529160200191611b82565b820191906000526020600020905b815481529060010190602001808311611b6557829003601f168201915b505050505081526020019060010190611ada565b5050505081526020016002820160009054906101000a900473ffffffffffffffffffffffffffffffffffffffff1673ffffffffffffffffffffffffffffffffffffffff1673ffffffffffffffffffffffffffffffffffffffff168152602001600382015481526020016004820160009054906101000a900460ff1615151515815260200160058201548152505081526020019060010190611a88565b50505050905090565b60008260026001840381548110611c4e57fe5b906000526020600020906006020160050181905550600160026001840381548110611c7557fe5b906000526020600020906006020160040160006101000a81548160ff0219169083151502179055506001905092915050565b600060026001830381548110611cb957fe5b906000526020600020906006020160040160009054906101000a900460ff161560026001840381548110611ce957fe5b906000526020600020906006020160040160006101000a81548160ff02191690831515021790555060019050919050565b6004602052806000526040600020600091509050806000018054600181600116156101000203166002900480601f016020809104026020016040519081016040528092919081815260200182805460018160011615610100020316600290048015611dc65780601f10611d9b57610100808354040283529160200191611dc6565b820191906000526020600020905b815481529060010190602001808311611da957829003601f168201915b505050505090806001018054600181600116156101000203166002900480601f016020809104026020016040519081016040528092919081815260200182805460018160011615610100020316600290048015611e645780601f10611e3957610100808354040283529160200191611e64565b820191906000526020600020905b815481529060010190602001808311611e4757829003601f168201915b505050505090806002018054600181600116156101000203166002900480601f016020809104026020016040519081016040528092919081815260200182805460018160011615610100020316600290048015611f025780601f10611ed757610100808354040283529160200191611f02565b820191906000526020600020905b815481529060010190602001808311611ee557829003601f168201915b505050505090806003018054600181600116156101000203166002900480601f016020809104026020016040519081016040528092919081815260200182805460018160011615610100020316600290048015611fa05780601f10611f7557610100808354040283529160200191611fa0565b820191906000526020600020905b815481529060010190602001808311611f8357829003601f168201915b5050505050908060040160009054906101000a900473ffffffffffffffffffffffffffffffffffffffff16908060040160149054906101000a900460ff16908060040160159054906101000a900460ff16905087565b6060600760003373ffffffffffffffffffffffffffffffffffffffff1673ffffffffffffffffffffffffffffffffffffffff168152602001908152602001600020805480602002602001604051908101604052809291908181526020016000905b8282101561213f57838290600052602060002090600302016040518060600160405290816000820160009054906101000a900473ffffffffffffffffffffffffffffffffffffffff1673ffffffffffffffffffffffffffffffffffffffff1673ffffffffffffffffffffffffffffffffffffffff1681526020016001820160009054906101000a900473ffffffffffffffffffffffffffffffffffffffff1673ffffffffffffffffffffffffffffffffffffffff1673ffffffffffffffffffffffffffffffffffffffff16815260200160028201548152505081526020019060010190612057565b50505050905090565b6060600660003373ffffffffffffffffffffffffffffffffffffffff1673ffffffffffffffffffffffffffffffffffffffff168152602001908152602001600020805480602002602001604051908101604052809291908181526020016000905b8282101561235357838290600052602060002090600602016040518060c00160405290816000820154815260200160018201805480602002602001604051908101604052809291908181526020016000905b828210156122b7578382906000526020600020018054600181600116156101000203166002900480601f0160208091040260200160405190810160405280929190818152602001828054600181600116156101000203166002900480156122a35780601f10612278576101008083540402835291602001916122a3565b820191906000526020600020905b81548152906001019060200180831161228657829003601f168201915b5050505050815260200190600101906121fb565b5050505081526020016002820160009054906101000a900473ffffffffffffffffffffffffffffffffffffffff1673ffffffffffffffffffffffffffffffffffffffff1673ffffffffffffffffffffffffffffffffffffffff168152602001600382015481526020016004820160009054906101000a900460ff16151515158152602001600582015481525050815260200190600101906121a9565b50505050905090565b606060038054806020026020016040519081016040528092919081815260200182805480156123e057602002820191906000526020600020905b8160009054906101000a900473ffffffffffffffffffffffffffffffffffffffff1673ffffffffffffffffffffffffffffffffffffffff1681526020019060010190808311612396575b5050505050905090565b60008273ffffffffffffffffffffffffffffffffffffffff166108fc349081150290604051600060405180830381858888f19350505050158015612432573d6000803e3d6000fd5b50600760008573ffffffffffffffffffffffffffffffffffffffff1673ffffffffffffffffffffffffffffffffffffffff16815260200190815260200160002060405180606001604052803373ffffffffffffffffffffffffffffffffffffffff1681526020018573ffffffffffffffffffffffffffffffffffffffff1681526020016000548152509080600181540180825580915050906001820390600052602060002090600302016000909192909190915060008201518160000160006101000a81548173ffffffffffffffffffffffffffffffffffffffff021916908373ffffffffffffffffffffffffffffffffffffffff16021790555060208201518160010160006101000a81548173ffffffffffffffffffffffffffffffffffffffff021916908373ffffffffffffffffffffffffffffffffffffffff16021790555060408201518160020155505050600760008473ffffffffffffffffffffffffffffffffffffffff1673ffffffffffffffffffffffffffffffffffffffff16815260200190815260200160002060405180606001604052803373ffffffffffffffffffffffffffffffffffffffff1681526020018573ffffffffffffffffffffffffffffffffffffffff1681526020016000548152509080600181540180825580915050906001820390600052602060002090600302016000909192909190915060008201518160000160006101000a81548173ffffffffffffffffffffffffffffffffffffffff021916908373ffffffffffffffffffffffffffffffffffffffff16021790555060208201518160010160006101000a81548173ffffffffffffffffffffffffffffffffffffffff021916908373ffffffffffffffffffffffffffffffffffffffff16021790555060408201518160020155505050600160405180606001604052803373ffffffffffffffffffffffffffffffffffffffff1681526020018573ffffffffffffffffffffffffffffffffffffffff168152602001848152509080600181540180825580915050906001820390600052602060002090600302016000909192909190915060008201518160000160006101000a81548173ffffffffffffffffffffffffffffffffffffffff021916908373ffffffffffffffffffffffffffffffffffffffff16021790555060208201518160010160006101000a81548173ffffffffffffffffffffffffffffffffffffffff021916908373ffffffffffffffffffffffffffffffffffffffff16021790555060408201518160020155505050600190509392505050565b60008060008154809291906001019190505550612804613131565b6040518060c0016040528060005481526020018581526020018473ffffffffffffffffffffffffffffffffffffffff16815260200142815260200160001515815260200160008152509050600660008473ffffffffffffffffffffffffffffffffffffffff1673ffffffffffffffffffffffffffffffffffffffff16815260200190815260200160002081908060018154018082558091505090600182039060005260206000209060060201600090919290919091506000820151816000015560208201518160010190805190602001906128e092919061317f565b5060408201518160020160006101000a81548173ffffffffffffffffffffffffffffffffffffffff021916908373ffffffffffffffffffffffffffffffffffffffff1602179055506060820151816003015560808201518160040160006101000a81548160ff02191690831515021790555060a08201518160050155505050600760003373ffffffffffffffffffffffffffffffffffffffff1673ffffffffffffffffffffffffffffffffffffffff16815260200190815260200160002060405180606001604052803373ffffffffffffffffffffffffffffffffffffffff1681526020018573ffffffffffffffffffffffffffffffffffffffff1681526020016000548152509080600181540180825580915050906001820390600052602060002090600302016000909192909190915060008201518160000160006101000a81548173ffffffffffffffffffffffffffffffffffffffff021916908373ffffffffffffffffffffffffffffffffffffffff16021790555060208201518160010160006101000a81548173ffffffffffffffffffffffffffffffffffffffff021916908373ffffffffffffffffffffffffffffffffffffffff16021790555060408201518160020155505050600760008473ffffffffffffffffffffffffffffffffffffffff1673ffffffffffffffffffffffffffffffffffffffff16815260200190815260200160002060405180606001604052803373ffffffffffffffffffffffffffffffffffffffff1681526020018573ffffffffffffffffffffffffffffffffffffffff1681526020016000548152509080600181540180825580915050906001820390600052602060002090600302016000909192909190915060008201518160000160006101000a81548173ffffffffffffffffffffffffffffffffffffffff021916908373ffffffffffffffffffffffffffffffffffffffff16021790555060208201518160010160006101000a81548173ffffffffffffffffffffffffffffffffffffffff021916908373ffffffffffffffffffffffffffffffffffffffff16021790555060408201518160020155505050600160405180606001604052803373ffffffffffffffffffffffffffffffffffffffff1681526020018573ffffffffffffffffffffffffffffffffffffffff1681526020016000548152509080600181540180825580915050906001820390600052602060002090600302016000909192909190915060008201518160000160006101000a81548173ffffffffffffffffffffffffffffffffffffffff021916908373ffffffffffffffffffffffffffffffffffffffff16021790555060208201518160010160006101000a81548173ffffffffffffffffffffffffffffffffffffffff021916908373ffffffffffffffffffffffffffffffffffffffff1602179055506040820151816002015550505060028190806001815401808255809150509060018203906000526020600020906006020160009091929091909150600082015181600001556020820151816001019080519060200190612d6092919061317f565b5060408201518160020160006101000a81548173ffffffffffffffffffffffffffffffffffffffff021916908373ffffffffffffffffffffffffffffffffffffffff1602179055506060820151816003015560808201518160040160006101000a81548160ff02191690831515021790555060a08201518160050155505050600191505092915050565b600034600860003373ffffffffffffffffffffffffffffffffffffffff1673ffffffffffffffffffffffffffffffffffffffff16815260200190815260200160002060008282540192505081905550600860003373ffffffffffffffffffffffffffffffffffffffff1673ffffffffffffffffffffffffffffffffffffffff16815260200190815260200160002054905090565b60005481565b60066020528160005260406000208181548110612e9d57fe5b9060005260206000209060060201600091509150508060000154908060020160009054906101000a900473ffffffffffffffffffffffffffffffffffffffff16908060030154908060040160009054906101000a900460ff16908060050154905085565b612f09613131565b60026001830381548110612f1957fe5b90600052602060002090600602016040518060c00160405290816000820154815260200160018201805480602002602001604051908101604052809291908181526020016000905b8282101561301d578382906000526020600020018054600181600116156101000203166002900480601f0160208091040260200160405190810160405280929190818152602001828054600181600116156101000203166002900480156130095780601f10612fde57610100808354040283529160200191613009565b820191906000526020600020905b815481529060010190602001808311612fec57829003601f168201915b505050505081526020019060010190612f61565b5050505081526020016002820160009054906101000a900473ffffffffffffffffffffffffffffffffffffffff1673ffffffffffffffffffffffffffffffffffffffff1673ffffffffffffffffffffffffffffffffffffffff168152602001600382015481526020016004820160009054906101000a900460ff161515151581526020016005820154815250509050919050565b828054600181600116156101000203166002900490600052602060002090601f016020900481019282601f106130f257805160ff1916838001178555613120565b82800160010185558215613120579182015b8281111561311f578251825591602001919060010190613104565b5b50905061312d9190613257565b5090565b6040518060c001604052806000815260200160608152602001600073ffffffffffffffffffffffffffffffffffffffff16815260200160008152602001600015158152602001600081525090565b8280548282559060005260206000209081019282156131ce579160200282015b828111156131cd5782518290805190602001906131bd92919061327c565b509160200191906001019061319f565b5b5090506131db91906132fc565b5090565b50805460008255906000526020600020908101906131fd91906132fc565b50565b6040518060e0016040528060608152602001606081526020016060815260200160608152602001600073ffffffffffffffffffffffffffffffffffffffff1681526020016000151581526020016000151581525090565b61327991905b8082111561327557600081600090555060010161325d565b5090565b90565b828054600181600116156101000203166002900490600052602060002090601f016020900481019282601f106132bd57805160ff19168380011785556132eb565b828001600101855582156132eb579182015b828111156132ea5782518255916020019190600101906132cf565b5b5090506132f89190613257565b5090565b61332591905b8082111561332157600081816133189190613328565b50600101613302565b5090565b90565b50805460018160011615610100020316600290046000825580601f1061334e575061336d565b601f01602090049060005260206000209081019061336c9190613257565b5b50565b60008135905061337f816141f7565b92915050565b6000813590506133948161420e565b92915050565b600082601f8301126133ab57600080fd5b81356133be6133b982613f8e565b613f61565b9150818183526020840193506020810190508360005b8381101561340457813586016133ea8882613423565b8452602084019350602083019250506001810190506133d4565b5050505092915050565b60008135905061341d81614225565b92915050565b600082601f83011261343457600080fd5b813561344761344282613fb6565b613f61565b9150808252602083016020830185838301111561346357600080fd5b61346e8382846141a4565b50505092915050565b600082601f83011261348857600080fd5b813561349b61349682613fe2565b613f61565b915080825260208301602083018583830111156134b757600080fd5b6134c28382846141a4565b50505092915050565b6000813590506134da8161423c565b92915050565b6000602082840312156134f257600080fd5b600061350084828501613370565b91505092915050565b60008060006060848603121561351e57600080fd5b600061352c86828701613370565b935050602061353d86828701613385565b925050604061354e868287016134cb565b9150509250925092565b6000806040838503121561356b57600080fd5b600061357985828601613370565b925050602061358a858286016134cb565b9150509250929050565b600080604083850312156135a757600080fd5b600083013567ffffffffffffffff8111156135c157600080fd5b6135cd8582860161339a565b92505060206135de85828601613370565b9150509250929050565b600080604083850312156135fb57600080fd5b600083013567ffffffffffffffff81111561361557600080fd5b61362185828601613477565b925050602083013567ffffffffffffffff81111561363e57600080fd5b61364a85828601613477565b9150509250929050565b600080600080600060a0868803121561366c57600080fd5b600086013567ffffffffffffffff81111561368657600080fd5b61369288828901613477565b955050602086013567ffffffffffffffff8111156136af57600080fd5b6136bb88828901613477565b945050604086013567ffffffffffffffff8111156136d857600080fd5b6136e488828901613477565b935050606086013567ffffffffffffffff81111561370157600080fd5b61370d88828901613477565b925050608061371e8882890161340e565b9150509295509295909350565b60006020828403121561373d57600080fd5b600061374b848285016134cb565b91505092915050565b6000806040838503121561376757600080fd5b6000613775858286016134cb565b925050602061378685828601613370565b9150509250929050565b600080604083850312156137a357600080fd5b60006137b1858286016134cb565b92505060206137c2858286016134cb565b9150509250929050565b60006137d88383613824565b60208301905092915050565b60006137f08383613ac5565b905092915050565b60006138048383613bc0565b905092915050565b60006138188383613c49565b60608301905092915050565b61382d8161414a565b82525050565b61383c8161414a565b82525050565b600061384d82614063565b61385781856140d9565b93506138628361400e565b8060005b8381101561389357815161387a88826137cc565b9750613885836140a5565b925050600181019050613866565b5085935050505092915050565b60006138ab8261406e565b6138b581856140ea565b9350836020820285016138c78561401e565b8060005b8581101561390357848403895281516138e485826137e4565b94506138ef836140b2565b925060208a019950506001810190506138cb565b50829750879550505050505092915050565b600061392082614079565b61392a81856140fb565b93508360208202850161393c8561402e565b8060005b85811015613978578484038952815161395985826137f8565b9450613964836140bf565b925060208a01995050600181019050613940565b50829750879550505050505092915050565b600061399582614084565b61399f818561410c565b93506139aa8361403e565b8060005b838110156139db5781516139c2888261380c565b97506139cd836140cc565b9250506001810190506139ae565b5085935050505092915050565b6139f18161416e565b82525050565b613a008161416e565b82525050565b6000613a118261408f565b613a1b818561411d565b9350613a2b8185602086016141b3565b80840191505092915050565b600081546001811660008114613a545760018114613a7957613abd565b607f6002830416613a65818761411d565b955060ff1983168652808601935050613abd565b60028204613a87818761411d565b9550613a928561404e565b60005b82811015613ab457815481890152600182019150602081019050613a95565b82880195505050505b505092915050565b6000613ad08261409a565b613ada8185614128565b9350613aea8185602086016141b3565b613af3816141e6565b840191505092915050565b6000613b098261409a565b613b138185614139565b9350613b238185602086016141b3565b613b2c816141e6565b840191505092915050565b600060c083016000830151613b4f6000860182613d3c565b5060208301518482036020860152613b6782826138a0565b9150506040830151613b7c6040860182613824565b506060830151613b8f6060860182613d3c565b506080830151613ba260808601826139e8565b5060a0830151613bb560a0860182613d3c565b508091505092915050565b600060c083016000830151613bd86000860182613d3c565b5060208301518482036020860152613bf082826138a0565b9150506040830151613c056040860182613824565b506060830151613c186060860182613d3c565b506080830151613c2b60808601826139e8565b5060a0830151613c3e60a0860182613d3c565b508091505092915050565b606082016000820151613c5f6000850182613824565b506020820151613c726020850182613824565b506040820151613c856040850182613d3c565b50505050565b600060e0830160008301518482036000860152613ca88282613ac5565b91505060208301518482036020860152613cc28282613ac5565b91505060408301518482036040860152613cdc8282613ac5565b91505060608301518482036060860152613cf68282613ac5565b9150506080830151613d0b6080860182613824565b5060a0830151613d1e60a08601826139e8565b5060c0830151613d3160c08601826139e8565b508091505092915050565b613d458161419a565b82525050565b613d548161419a565b82525050565b6000613d668284613a06565b915081905092915050565b6000613d7d8284613a37565b915081905092915050565b6000602082019050613d9d6000830184613833565b92915050565b60006020820190508181036000830152613dbd8184613842565b905092915050565b60006020820190508181036000830152613ddf8184613915565b905092915050565b60006020820190508181036000830152613e01818461398a565b905092915050565b6000602082019050613e1e60008301846139f7565b92915050565b600060e0820190508181036000830152613e3e818a613afe565b90508181036020830152613e528189613afe565b90508181036040830152613e668188613afe565b90508181036060830152613e7a8187613afe565b9050613e896080830186613833565b613e9660a08301856139f7565b613ea360c08301846139f7565b98975050505050505050565b60006020820190508181036000830152613ec98184613b37565b905092915050565b60006020820190508181036000830152613eeb8184613c8b565b905092915050565b6000602082019050613f086000830184613d4b565b92915050565b600060a082019050613f236000830188613d4b565b613f306020830187613833565b613f3d6040830186613d4b565b613f4a60608301856139f7565b613f576080830184613d4b565b9695505050505050565b6000604051905081810181811067ffffffffffffffff82111715613f8457600080fd5b8060405250919050565b600067ffffffffffffffff821115613fa557600080fd5b602082029050602081019050919050565b600067ffffffffffffffff821115613fcd57600080fd5b601f19601f8301169050602081019050919050565b600067ffffffffffffffff821115613ff957600080fd5b601f19601f8301169050602081019050919050565b6000819050602082019050919050565b6000819050602082019050919050565b6000819050602082019050919050565b6000819050602082019050919050565b60008190508160005260206000209050919050565b600081519050919050565b600081519050919050565b600081519050919050565b600081519050919050565b600081519050919050565b600081519050919050565b6000602082019050919050565b6000602082019050919050565b6000602082019050919050565b6000602082019050919050565b600082825260208201905092915050565b600082825260208201905092915050565b600082825260208201905092915050565b600082825260208201905092915050565b600081905092915050565b600082825260208201905092915050565b600082825260208201905092915050565b60006141558261417a565b9050919050565b60006141678261417a565b9050919050565b60008115159050919050565b600073ffffffffffffffffffffffffffffffffffffffff82169050919050565b6000819050919050565b82818337600083830152505050565b60005b838110156141d15780820151818401526020810190506141b6565b838111156141e0576000848401525b50505050565b6000601f19601f8301169050919050565b6142008161414a565b811461420b57600080fd5b50565b6142178161415c565b811461422257600080fd5b50565b61422e8161416e565b811461423957600080fd5b50565b6142458161419a565b811461425057600080fd5b5056fea365627a7a72315820612372eceb208d8d28197643d561a9dba6df698e35331d8cb6285634f91f81cd6c6578706572696d656e74616cf564736f6c63430005100040",
  "source": "// SPDX-License-Identifier: MIT\r\npragma solidity >=0.4.22 <0.9.0;\r\npragma experimental ABIEncoderV2;\r\n\r\ncontract Land {\r\n    uint256 public landCount = 0;\r\n\r\n    struct User {\r\n        string f_name;\r\n        string l_name;\r\n        string id;\r\n        string password;\r\n        address addr;\r\n        bool isAdmin;\r\n        bool isLoggedin;\r\n    }\r\n\r\n    constructor() public {\r\n        user[msg.sender] = User(\r\n            \"Natnael\",\r\n            \"abay\",\r\n            \"123123\",\r\n            \"123123\",\r\n            msg.sender,\r\n            true,\r\n            false\r\n        );\r\n\r\n        // lands.push(LandStruct({lng: \"\", lat: \"\", owner: msg.sender}));\r\n    }\r\n\r\n    struct LandStruct {\r\n        uint256 id;\r\n        string[] coordinates;\r\n        address owner;\r\n        uint256 timestamp;\r\n        bool forSell;\r\n        uint256 price;\r\n    }\r\n\r\n    struct Transaction {\r\n        address from;\r\n        address to;\r\n        uint256 landId;\r\n    }\r\n\r\n    function sellLand(\r\n        address from,\r\n        address payable to,\r\n        uint256 landId\r\n    )\r\n        public\r\n        payable\r\n        returns (\r\n            // uint256 memory price\r\n            bool\r\n        )\r\n    {\r\n        to.transfer(msg.value);\r\n        myTransactions[from].push(Transaction(msg.sender, to, landCount));\r\n        myTransactions[to].push(Transaction(msg.sender, to, landCount));\r\n        transactions.push(Transaction(msg.sender, to, landId));\r\n        return true;\r\n    }\r\n\r\n    Transaction[] transactions;\r\n    LandStruct[] lands;\r\n\r\n    address[] public all;\r\n\r\n    mapping(address => User) public user;\r\n    mapping(string => User) admins;\r\n    mapping(address => LandStruct[]) public userLands;\r\n    mapping(address => Transaction[]) myTransactions;\r\n    mapping(address => uint256) balances;\r\n\r\n    function deposit() public payable returns (uint256) {\r\n        balances[msg.sender] += msg.value;\r\n        return balances[msg.sender];\r\n    }\r\n\r\n    function createLand(string[] memory _coordinates, address owner)\r\n        public\r\n        returns (bool)\r\n    {\r\n        landCount++;\r\n        LandStruct memory land = LandStruct(\r\n            landCount,\r\n            _coordinates,\r\n            owner,\r\n            block.timestamp,\r\n            false,\r\n            0\r\n        );\r\n\r\n        userLands[owner].push(land);\r\n\r\n        myTransactions[msg.sender].push(\r\n            Transaction(msg.sender, owner, landCount)\r\n        );\r\n\r\n        myTransactions[owner].push(Transaction(msg.sender, owner, landCount));\r\n\r\n        transactions.push(Transaction(msg.sender, owner, landCount));\r\n        lands.push(land);\r\n        return true;\r\n    }\r\n\r\n    function login(string memory id, string memory password)\r\n        public\r\n        returns (bool)\r\n    {\r\n        require(user[msg.sender].addr == msg.sender);\r\n        if (\r\n            keccak256(abi.encodePacked(bytes(user[msg.sender].id))) ==\r\n            keccak256(abi.encodePacked(bytes(id))) &&\r\n            keccak256(abi.encodePacked(bytes(user[msg.sender].password))) ==\r\n            keccak256(abi.encodePacked(bytes(password)))\r\n        ) {\r\n            user[msg.sender].isLoggedin = true;\r\n            return true;\r\n        }\r\n        return false;\r\n    }\r\n\r\n    function register(\r\n        string memory f_name,\r\n        string memory l_name,\r\n        string memory id,\r\n        string memory password,\r\n        bool isAdmin\r\n    ) public returns (bool) {\r\n        require(user[msg.sender].addr != msg.sender);\r\n        user[msg.sender].addr = msg.sender;\r\n        user[msg.sender].f_name = f_name;\r\n        user[msg.sender].l_name = l_name;\r\n        user[msg.sender].id = id;\r\n        user[msg.sender].password = password;\r\n        user[msg.sender].isLoggedin = false;\r\n        user[msg.sender].isAdmin = isAdmin;\r\n        all.push(msg.sender);\r\n        return true;\r\n    }\r\n\r\n    function getLands() public view returns (LandStruct[] memory) {\r\n        return lands;\r\n    }\r\n\r\n    function sendMe() public view returns (address) {\r\n        return msg.sender;\r\n    }\r\n\r\n    function getAllAddresses() public view returns (address[] memory) {\r\n        return all;\r\n    }\r\n\r\n    function getUserLands() public view returns (LandStruct[] memory) {\r\n        return userLands[msg.sender];\r\n    }\r\n\r\n    function getTransactions() public view returns (Transaction[] memory) {\r\n        return myTransactions[msg.sender];\r\n    }\r\n\r\n    function getAllTransactions() public view returns (Transaction[] memory) {\r\n        return transactions;\r\n    }\r\n\r\n    function getLand(uint256 id) public view returns (LandStruct memory) {\r\n        return lands[id - 1];\r\n    }\r\n\r\n    function getMe(address adr) public view returns (User memory) {\r\n        return user[adr];\r\n    }\r\n\r\n    function testMe() public view returns (address) {\r\n        return msg.sender;\r\n    }\r\n\r\n    function updateLandForsell(uint256 price, uint256 i) public returns (bool) {\r\n        lands[i - 1].price = price;\r\n        lands[i - 1].forSell = true;\r\n        return true;\r\n    }\r\n\r\n    function updateLandStatus(uint256 i) public returns (bool) {\r\n        lands[i - 1].forSell = !lands[i - 1].forSell;\r\n        return true;\r\n    }\r\n\r\n    function sellLand(uint256 id, address owner) public {\r\n        myTransactions[owner].push(Transaction(lands[id - 1].owner, owner, id));\r\n        myTransactions[lands[id - 1].owner].push(\r\n            Transaction(lands[id - 1].owner, owner, id)\r\n        );\r\n        transactions.push(Transaction(lands[id - 1].owner, owner, id));\r\n        lands[id - 1].forSell = false;\r\n        lands[id - 1].owner = owner;\r\n\r\n        LandStruct memory land = LandStruct(\r\n            id - 1,\r\n            lands[id - 1].coordinates,\r\n            lands[id - 1].owner,\r\n            block.timestamp,\r\n            false,\r\n            lands[id - 1].price\r\n        );\r\n        userLands[owner].push(land);\r\n\r\n        for (uint256 i = 0; i < userLands[lands[id - 1].owner].length; i++) {\r\n            if (userLands[lands[id - 1].owner][i].id == id) {\r\n                delete userLands[lands[id - 1].owner][i];\r\n            }\r\n        }\r\n    }\r\n}\r\n",
  "sourcePath": "F:\\blockchain-project\\contracts\\Land.sol",
  "compiler": {
    "name": "solc",
    "version": "0.5.16+commit.9c3226ce.Emscripten.clang"
  },
  "schemaVersion": "3.4.4",
  "updatedAt": "2022-01-15T09:55:32.414Z",
  "networkType": "ethereum",
  "devdoc": {
    "methods": {}
  },
  "userdoc": {
    "methods": {}
  }
}