{
  "contractName": "LandRegistration",
  "abi": [
    {
      "inputs": [],
      "payable": false,
      "stateMutability": "nonpayable",
      "type": "constructor"
    },
    {
      "constant": true,
      "inputs": [
        {
          "internalType": "string",
          "name": "",
          "type": "string"
        }
      ],
      "name": "admin",
      "outputs": [
        {
          "internalType": "address",
          "name": "",
          "type": "address"
        }
      ],
      "payable": false,
      "stateMutability": "view",
      "type": "function"
    },
    {
      "constant": false,
      "inputs": [
        {
          "internalType": "address",
          "name": "_superAdmin",
          "type": "address"
        },
        {
          "internalType": "string",
          "name": "_village",
          "type": "string"
        }
      ],
      "name": "addSuperAdmin",
      "outputs": [],
      "payable": false,
      "stateMutability": "nonpayable",
      "type": "function"
    }
  ],
  "bytecode": "0x608060405234801561001057600080fd5b50336000806101000a81548173ffffffffffffffffffffffffffffffffffffffff021916908373ffffffffffffffffffffffffffffffffffffffff160217905550610394806100606000396000f3fe608060405234801561001057600080fd5b50600436106100365760003560e01c8063ab05bae61461003b578063d554d16714610116575b600080fd5b6101146004803603604081101561005157600080fd5b81019080803573ffffffffffffffffffffffffffffffffffffffff1690602001909291908035906020019064010000000081111561008e57600080fd5b8201836020820111156100a057600080fd5b803590602001918460018302840111640100000000831117156100c257600080fd5b91908080601f016020809104026020016040519081016040528093929190818152602001838380828437600081840152601f19601f820116905080830192505050505050509192919290505050610211565b005b6101cf6004803603602081101561012c57600080fd5b810190808035906020019064010000000081111561014957600080fd5b82018360208201111561015b57600080fd5b8035906020019184600183028401116401000000008311171561017d57600080fd5b91908080601f016020809104026020016040519081016040528093929190818152602001838380828437600081840152601f19601f820116905080830192505050505050509192919290505050610316565b604051808273ffffffffffffffffffffffffffffffffffffffff1673ffffffffffffffffffffffffffffffffffffffff16815260200191505060405180910390f35b6000809054906101000a900473ffffffffffffffffffffffffffffffffffffffff1673ffffffffffffffffffffffffffffffffffffffff163373ffffffffffffffffffffffffffffffffffffffff161461026a57600080fd5b816002826040518082805190602001908083835b602083106102a1578051825260208201915060208101905060208303925061027e565b6001836020036101000a038019825116818451168082178552505050505050905001915050908152602001604051809103902060006101000a81548173ffffffffffffffffffffffffffffffffffffffff021916908373ffffffffffffffffffffffffffffffffffffffff1602179055505050565b6002818051602081018201805184825260208301602085012081835280955050505050506000915054906101000a900473ffffffffffffffffffffffffffffffffffffffff168156fea265627a7a723158209ef0a02ad4d7819c6180b3bc31d14127cc148ffd9787f5dadc6263e3a75cd81d64736f6c63430005100032",
  "source": "// SPDX-License-Identifier: MIT\npragma solidity >=0.4.22 <0.9.0;\n\ncontract LandRegistration {\n    constructor() public {\n        owner = msg.sender;\n    }\n\n\n    address owner;\n    mapping(uint256 => landDetails) lands;\n    mapping(string => address) public admin;\n    mapping(address => profiles) profile;\n\n    enum RequestStatus {\n        Default,\n        pending,\n        reject,\n        approved\n    }\n\n    struct landDetails {\n        string state;\n        string district;\n        string village;\n        uint256 surveyNumber;\n        address payable CurrentOwner;\n        uint256 marketValue;\n        bool isAvailable;\n        address requester;\n        RequestStatus requestStatus;\n    }\n\n    struct profiles {\n        uint256[] assetList;\n    }\n\n    modifier onlyOwner() {\n        require(msg.sender == owner);\n        _;\n    }\n\n    function addSuperAdmin(address _superAdmin, string memory _village)\n        public\n        onlyOwner\n    {\n        admin[_village] = _superAdmin;\n    }\n}\n",
  "sourcePath": "F:\\blockchain-project\\contracts\\LandRegistration.sol",
  "compiler": {
    "name": "solc",
    "version": "0.5.16+commit.9c3226ce.Emscripten.clang"
  },
  "schemaVersion": "3.4.4",
  "updatedAt": "2022-01-11T18:41:21.034Z",
  "networkType": "ethereum",
  "devdoc": {
    "methods": {}
  },
  "userdoc": {
    "methods": {}
  }
}